{
  "contractName": "Test",
  "abi": [
    {
      "inputs": [
        {
          "internalType": "uint256",
          "name": "testNum",
          "type": "uint256"
        }
      ],
      "name": "test",
      "outputs": [
        {
          "internalType": "uint256",
          "name": "data",
          "type": "uint256"
        }
      ],
      "stateMutability": "pure",
      "type": "function"
    },
    {
      "inputs": [],
      "name": "test2",
      "outputs": [
        {
          "internalType": "uint256",
          "name": "data",
          "type": "uint256"
        }
      ],
      "stateMutability": "pure",
      "type": "function"
    }
  ],
  "bytecode": "0x608060405234801561001057600080fd5b506101ac806100206000396000f3fe608060405234801561001057600080fd5b50600436106100365760003560e01c806329e99f071461003b57806366e41cb71461006b575b600080fd5b6100556004803603810190610050919061011f565b610089565b604051610062919061015b565b60405180910390f35b6100736100c9565b604051610080919061015b565b60405180910390f35b6000609060405260006040518060600160405280600160ff168152602001600260ff168152602001600360ff168152509050604051915082915050919050565b60006040516468656c6c6f6000820152600081015191505090565b600080fd5b6000819050919050565b6100fc816100e9565b811461010757600080fd5b50565b600081359050610119816100f3565b92915050565b600060208284031215610135576101346100e4565b5b60006101438482850161010a565b91505092915050565b610155816100e9565b82525050565b6000602082019050610170600083018461014c565b9291505056fea2646970667358221220e5a3b54d768bb67030901439e58ce503b2636c17c8a8fa1931af13003f6937f464736f6c63430008110033",
  "immutableReferences": {},
  "source": "// SPDX-License-Identifier: UNLICENSED\npragma solidity ^0.8.0;\n\ncontract Test {\n\n    function test(uint testNum) external pure returns (uint data){\n\n        assembly {\n            mstore(0x40,0x90)\n        }\n\n        uint8[3] memory items = [1,2,3];\n        items;\n        assembly {\n            data := mload(0x40)\n        }\n        return testNum;\n    }\n\n    function test2() external pure returns (uint data){\n        assembly {\n            let fmp := mload(0x40)\n        // hello\n            mstore(add(fmp,0x00), 0x68656C6C6F) // hello => 0x68656C6C6F\n            data := mload(add(fmp,0x00))\n        }\n    }\n\n}\n\n",
  "sourcePath": "/Users/kmaster/Development/playground/blockchain/faucet/contracts/Test.sol",
  "compiler": {
    "name": "solc",
    "version": "0.8.17+commit.8df45f5f.Emscripten.clang"
  },
  "schemaVersion": "3.4.11",
  "updatedAt": "2023-02-17T08:06:31.790Z",
  "devdoc": {
    "kind": "dev",
    "methods": {},
    "version": 1
  },
  "userdoc": {
    "kind": "user",
    "methods": {},
    "version": 1
  }
}